{
  "_format": "hh-sol-artifact-1",
  "contractName": "KingV2",
  "sourceName": "contracts/KingV2.sol",
  "abi": [
    {
      "anonymous": false,
      "inputs": [
        {
          "indexed": false,
          "internalType": "address",
          "name": "previousAdmin",
          "type": "address"
        },
        {
          "indexed": false,
          "internalType": "address",
          "name": "newAdmin",
          "type": "address"
        }
      ],
      "name": "AdminChanged",
      "type": "event"
    },
    {
      "anonymous": false,
      "inputs": [
        {
          "indexed": true,
          "internalType": "address",
          "name": "beacon",
          "type": "address"
        }
      ],
      "name": "BeaconUpgraded",
      "type": "event"
    },
    {
      "anonymous": false,
      "inputs": [
        {
          "indexed": true,
          "internalType": "address",
          "name": "",
          "type": "address"
        },
        {
          "indexed": true,
          "internalType": "address",
          "name": "",
          "type": "address"
        },
        {
          "indexed": true,
          "internalType": "uint256",
          "name": "",
          "type": "uint256"
        }
      ],
      "name": "NewKing",
      "type": "event"
    },
    {
      "anonymous": false,
      "inputs": [
        {
          "indexed": false,
          "internalType": "address",
          "name": "account",
          "type": "address"
        }
      ],
      "name": "Paused",
      "type": "event"
    },
    {
      "anonymous": false,
      "inputs": [
        {
          "indexed": true,
          "internalType": "bytes32",
          "name": "role",
          "type": "bytes32"
        },
        {
          "indexed": true,
          "internalType": "bytes32",
          "name": "previousAdminRole",
          "type": "bytes32"
        },
        {
          "indexed": true,
          "internalType": "bytes32",
          "name": "newAdminRole",
          "type": "bytes32"
        }
      ],
      "name": "RoleAdminChanged",
      "type": "event"
    },
    {
      "anonymous": false,
      "inputs": [
        {
          "indexed": true,
          "internalType": "bytes32",
          "name": "role",
          "type": "bytes32"
        },
        {
          "indexed": true,
          "internalType": "address",
          "name": "account",
          "type": "address"
        },
        {
          "indexed": true,
          "internalType": "address",
          "name": "sender",
          "type": "address"
        }
      ],
      "name": "RoleGranted",
      "type": "event"
    },
    {
      "anonymous": false,
      "inputs": [
        {
          "indexed": true,
          "internalType": "bytes32",
          "name": "role",
          "type": "bytes32"
        },
        {
          "indexed": true,
          "internalType": "address",
          "name": "account",
          "type": "address"
        },
        {
          "indexed": true,
          "internalType": "address",
          "name": "sender",
          "type": "address"
        }
      ],
      "name": "RoleRevoked",
      "type": "event"
    },
    {
      "anonymous": false,
      "inputs": [
        {
          "indexed": false,
          "internalType": "address",
          "name": "account",
          "type": "address"
        }
      ],
      "name": "Unpaused",
      "type": "event"
    },
    {
      "anonymous": false,
      "inputs": [
        {
          "indexed": true,
          "internalType": "address",
          "name": "",
          "type": "address"
        },
        {
          "indexed": false,
          "internalType": "uint16",
          "name": "ratio",
          "type": "uint16"
        }
      ],
      "name": "UpdateDefeatRatio",
      "type": "event"
    },
    {
      "anonymous": false,
      "inputs": [
        {
          "indexed": true,
          "internalType": "address",
          "name": "implementation",
          "type": "address"
        }
      ],
      "name": "Upgraded",
      "type": "event"
    },
    {
      "inputs": [],
      "name": "DEFAULT_ADMIN_ROLE",
      "outputs": [
        {
          "internalType": "bytes32",
          "name": "",
          "type": "bytes32"
        }
      ],
      "stateMutability": "view",
      "type": "function"
    },
    {
      "inputs": [],
      "name": "PAUSER_ROLE",
      "outputs": [
        {
          "internalType": "bytes32",
          "name": "",
          "type": "bytes32"
        }
      ],
      "stateMutability": "view",
      "type": "function"
    },
    {
      "inputs": [
        {
          "internalType": "address",
          "name": "_account",
          "type": "address"
        }
      ],
      "name": "addAdmin",
      "outputs": [],
      "stateMutability": "nonpayable",
      "type": "function"
    },
    {
      "inputs": [
        {
          "internalType": "address",
          "name": "mode",
          "type": "address"
        }
      ],
      "name": "addGameMode",
      "outputs": [],
      "stateMutability": "nonpayable",
      "type": "function"
    },
    {
      "inputs": [
        {
          "internalType": "address",
          "name": "_account",
          "type": "address"
        }
      ],
      "name": "addPauser",
      "outputs": [],
      "stateMutability": "nonpayable",
      "type": "function"
    },
    {
      "inputs": [
        {
          "internalType": "address",
          "name": "token",
          "type": "address"
        },
        {
          "internalType": "uint256",
          "name": "amount",
          "type": "uint256"
        }
      ],
      "name": "depositERC20",
      "outputs": [],
      "stateMutability": "nonpayable",
      "type": "function"
    },
    {
      "inputs": [],
      "name": "depositETH",
      "outputs": [],
      "stateMutability": "payable",
      "type": "function"
    },
    {
      "inputs": [
        {
          "internalType": "address",
          "name": "mode",
          "type": "address"
        }
      ],
      "name": "getCurrentKing",
      "outputs": [
        {
          "internalType": "address",
          "name": "",
          "type": "address"
        },
        {
          "internalType": "uint256",
          "name": "",
          "type": "uint256"
        },
        {
          "internalType": "uint16",
          "name": "",
          "type": "uint16"
        }
      ],
      "stateMutability": "view",
      "type": "function"
    },
    {
      "inputs": [],
      "name": "getGameMode",
      "outputs": [
        {
          "internalType": "address[]",
          "name": "",
          "type": "address[]"
        }
      ],
      "stateMutability": "view",
      "type": "function"
    },
    {
      "inputs": [
        {
          "internalType": "bytes32",
          "name": "role",
          "type": "bytes32"
        }
      ],
      "name": "getRoleAdmin",
      "outputs": [
        {
          "internalType": "bytes32",
          "name": "",
          "type": "bytes32"
        }
      ],
      "stateMutability": "view",
      "type": "function"
    },
    {
      "inputs": [
        {
          "internalType": "bytes32",
          "name": "role",
          "type": "bytes32"
        },
        {
          "internalType": "address",
          "name": "account",
          "type": "address"
        }
      ],
      "name": "grantRole",
      "outputs": [],
      "stateMutability": "nonpayable",
      "type": "function"
    },
    {
      "inputs": [
        {
          "internalType": "bytes32",
          "name": "role",
          "type": "bytes32"
        },
        {
          "internalType": "address",
          "name": "account",
          "type": "address"
        }
      ],
      "name": "hasRole",
      "outputs": [
        {
          "internalType": "bool",
          "name": "",
          "type": "bool"
        }
      ],
      "stateMutability": "view",
      "type": "function"
    },
    {
      "inputs": [
        {
          "internalType": "uint16",
          "name": "defeatRatio",
          "type": "uint16"
        }
      ],
      "name": "initialize",
      "outputs": [],
      "stateMutability": "nonpayable",
      "type": "function"
    },
    {
      "inputs": [
        {
          "internalType": "address",
          "name": "_account",
          "type": "address"
        }
      ],
      "name": "isAdmin",
      "outputs": [
        {
          "internalType": "bool",
          "name": "",
          "type": "bool"
        }
      ],
      "stateMutability": "view",
      "type": "function"
    },
    {
      "inputs": [
        {
          "internalType": "address",
          "name": "_account",
          "type": "address"
        }
      ],
      "name": "isPauser",
      "outputs": [
        {
          "internalType": "bool",
          "name": "",
          "type": "bool"
        }
      ],
      "stateMutability": "view",
      "type": "function"
    },
    {
      "inputs": [],
      "name": "paginationSize",
      "outputs": [
        {
          "internalType": "uint256",
          "name": "",
          "type": "uint256"
        }
      ],
      "stateMutability": "view",
      "type": "function"
    },
    {
      "inputs": [],
      "name": "pause",
      "outputs": [],
      "stateMutability": "nonpayable",
      "type": "function"
    },
    {
      "inputs": [],
      "name": "paused",
      "outputs": [
        {
          "internalType": "bool",
          "name": "",
          "type": "bool"
        }
      ],
      "stateMutability": "view",
      "type": "function"
    },
    {
      "inputs": [],
      "name": "proxiableUUID",
      "outputs": [
        {
          "internalType": "bytes32",
          "name": "",
          "type": "bytes32"
        }
      ],
      "stateMutability": "view",
      "type": "function"
    },
    {
      "inputs": [],
      "name": "ratio",
      "outputs": [
        {
          "internalType": "uint16",
          "name": "",
          "type": "uint16"
        }
      ],
      "stateMutability": "view",
      "type": "function"
    },
    {
      "inputs": [
        {
          "internalType": "address",
          "name": "_account",
          "type": "address"
        }
      ],
      "name": "removeAdmin",
      "outputs": [],
      "stateMutability": "nonpayable",
      "type": "function"
    },
    {
      "inputs": [
        {
          "internalType": "address",
          "name": "_account",
          "type": "address"
        }
      ],
      "name": "removePauser",
      "outputs": [],
      "stateMutability": "nonpayable",
      "type": "function"
    },
    {
      "inputs": [
        {
          "internalType": "bytes32",
          "name": "role",
          "type": "bytes32"
        },
        {
          "internalType": "address",
          "name": "account",
          "type": "address"
        }
      ],
      "name": "renounceRole",
      "outputs": [],
      "stateMutability": "nonpayable",
      "type": "function"
    },
    {
      "inputs": [
        {
          "internalType": "bytes32",
          "name": "role",
          "type": "bytes32"
        },
        {
          "internalType": "address",
          "name": "account",
          "type": "address"
        }
      ],
      "name": "revokeRole",
      "outputs": [],
      "stateMutability": "nonpayable",
      "type": "function"
    },
    {
      "inputs": [
        {
          "internalType": "bytes4",
          "name": "interfaceId",
          "type": "bytes4"
        }
      ],
      "name": "supportsInterface",
      "outputs": [
        {
          "internalType": "bool",
          "name": "",
          "type": "bool"
        }
      ],
      "stateMutability": "view",
      "type": "function"
    },
    {
      "inputs": [],
      "name": "unpause",
      "outputs": [],
      "stateMutability": "nonpayable",
      "type": "function"
    },
    {
      "inputs": [
        {
          "internalType": "uint16",
          "name": "defeatRatio",
          "type": "uint16"
        }
      ],
      "name": "updateDefeatRatio",
      "outputs": [],
      "stateMutability": "nonpayable",
      "type": "function"
    },
    {
      "inputs": [
        {
          "internalType": "address",
          "name": "newImplementation",
          "type": "address"
        }
      ],
      "name": "upgradeTo",
      "outputs": [],
      "stateMutability": "nonpayable",
      "type": "function"
    },
    {
      "inputs": [
        {
          "internalType": "address",
          "name": "newImplementation",
          "type": "address"
        },
        {
          "internalType": "bytes",
          "name": "data",
          "type": "bytes"
        }
      ],
      "name": "upgradeToAndCall",
      "outputs": [],
      "stateMutability": "payable",
      "type": "function"
    }
  ],
  "bytecode": "0x60a06040523073ffffffffffffffffffffffffffffffffffffffff1660809073ffffffffffffffffffffffffffffffffffffffff1681525034801561004357600080fd5b5060805161488561007b60003960008181610a4901528181610ad801528181610c7f01528181610d0e0152610dbe01526148856000f3fe6080604052600436106101c25760003560e01c806352d1902d116100f757806382dc1ec411610095578063a217fddf11610064578063a217fddf1461061b578063d547741f14610646578063e63ab1e91461066f578063f6326fb31461069a576101c2565b806382dc1ec4146105755780638456cb591461059e57806391d14854146105b557806397feb926146105f2576101c2565b80636a628467116100d15780636a628467146104b95780636b2c0f55146104f8578063704802751461052157806371ca337d1461054a576101c2565b806352d1902d1461043a5780635c975abb1461046557806361f2b2df14610490576101c2565b80632f2ff15d116101645780633d538ecf1161013e5780633d538ecf1461039f5780633f4ba83a146103ca57806346fbf68e146103e15780634f1ef2861461041e576101c2565b80632f2ff15d1461032457806336568abe1461034d5780633659cfe614610376576101c2565b80631785f53c116101a05780631785f53c14610256578063248a9ca31461027f57806324d7806c146102bc5780632dcecf44146102f9576101c2565b806301e40297146101c757806301ffc9a7146101f0578063137509461461022d575b600080fd5b3480156101d357600080fd5b506101ee60048036038101906101e991906130f3565b6106a4565b005b3480156101fc57600080fd5b5061021760048036038101906102129190613178565b6107a6565b60405161022491906131c0565b60405180910390f35b34801561023957600080fd5b50610254600480360381019061024f91906130f3565b610820565b005b34801561026257600080fd5b5061027d60048036038101906102789190613239565b610943565b005b34801561028b57600080fd5b506102a660048036038101906102a1919061329c565b610953565b6040516102b391906132d8565b60405180910390f35b3480156102c857600080fd5b506102e360048036038101906102de9190613239565b610973565b6040516102f091906131c0565b60405180910390f35b34801561030557600080fd5b5061030e610989565b60405161031b91906133b1565b60405180910390f35b34801561033057600080fd5b5061034b600480360381019061034691906133d3565b61099b565b005b34801561035957600080fd5b50610374600480360381019061036f91906133d3565b6109c4565b005b34801561038257600080fd5b5061039d60048036038101906103989190613239565b610a47565b005b3480156103ab57600080fd5b506103b4610bd0565b6040516103c1919061342c565b60405180910390f35b3480156103d657600080fd5b506103df610bd7565b005b3480156103ed57600080fd5b5061040860048036038101906104039190613239565b610c4a565b60405161041591906131c0565b60405180910390f35b6104386004803603810190610433919061358d565b610c7d565b005b34801561044657600080fd5b5061044f610dba565b60405161045c91906132d8565b60405180910390f35b34801561047157600080fd5b5061047a610e73565b60405161048791906131c0565b60405180910390f35b34801561049c57600080fd5b506104b760048036038101906104b29190613239565b610e8a565b005b3480156104c557600080fd5b506104e060048036038101906104db9190613239565b610ef8565b6040516104ef93929190613607565b60405180910390f35b34801561050457600080fd5b5061051f600480360381019061051a9190613239565b611014565b005b34801561052d57600080fd5b5061054860048036038101906105439190613239565b611041565b005b34801561055657600080fd5b5061055f611051565b60405161056c919061363e565b60405180910390f35b34801561058157600080fd5b5061059c60048036038101906105979190613239565b611066565b005b3480156105aa57600080fd5b506105b3611093565b005b3480156105c157600080fd5b506105dc60048036038101906105d791906133d3565b611106565b6040516105e991906131c0565b60405180910390f35b3480156105fe57600080fd5b5061061960048036038101906106149190613685565b611171565b005b34801561062757600080fd5b506106306117e3565b60405161063d91906132d8565b60405180910390f35b34801561065257600080fd5b5061066d600480360381019061066891906133d3565b6117ea565b005b34801561067b57600080fd5b50610684611813565b60405161069191906132d8565b60405180910390f35b6106a2611837565b005b6106b16000801b33611106565b6106f0576040517f08c379a00000000000000000000000000000000000000000000000000000000081526004016106e790613722565b60405180910390fd5b60008161ffff1611610737576040517f08c379a000000000000000000000000000000000000000000000000000000000815260040161072e9061378e565b60405180910390fd5b8061016460006101000a81548161ffff021916908361ffff1602179055503373ffffffffffffffffffffffffffffffffffffffff167fa2de6bf83dbec52cf9ab5b8e90aaec9ec2d32fdc90d8151766aac2b696ba35de8260405161079b919061363e565b60405180910390a250565b60007f7965db0b000000000000000000000000000000000000000000000000000000007bffffffffffffffffffffffffffffffffffffffffffffffffffffffff1916827bffffffffffffffffffffffffffffffffffffffffffffffffffffffff19161480610819575061081882611e2d565b5b9050919050565b600060019054906101000a900460ff166108485760008054906101000a900460ff1615610851565b610850611e97565b5b610890576040517f08c379a000000000000000000000000000000000000000000000000000000000815260040161088790613820565b60405180910390fd5b60008060019054906101000a900460ff1615905080156108e0576001600060016101000a81548160ff02191690831515021790555060016000806101000a81548160ff0219169083151502179055505b6108e933611ea8565b8161016460006101000a81548161ffff021916908361ffff16021790555061091d6000610162611fb790919063ffffffff16565b50801561093f5760008060016101000a81548160ff0219169083151502179055505b5050565b6109506000801b826117ea565b50565b600060fb6000838152602001908152602001600020600101549050919050565b60006109826000801b83611106565b9050919050565b6060610996610162611fe7565b905090565b6109a482610953565b6109b5816109b0612008565b612010565b6109bf83836120ad565b505050565b6109cc612008565b73ffffffffffffffffffffffffffffffffffffffff168173ffffffffffffffffffffffffffffffffffffffff1614610a39576040517f08c379a0000000000000000000000000000000000000000000000000000000008152600401610a30906138b2565b60405180910390fd5b610a43828261218e565b5050565b7f000000000000000000000000000000000000000000000000000000000000000073ffffffffffffffffffffffffffffffffffffffff163073ffffffffffffffffffffffffffffffffffffffff161415610ad6576040517f08c379a0000000000000000000000000000000000000000000000000000000008152600401610acd90613944565b60405180910390fd5b7f000000000000000000000000000000000000000000000000000000000000000073ffffffffffffffffffffffffffffffffffffffff16610b15612270565b73ffffffffffffffffffffffffffffffffffffffff1614610b6b576040517f08c379a0000000000000000000000000000000000000000000000000000000008152600401610b62906139d6565b60405180910390fd5b610b74816122c7565b610bcd81600067ffffffffffffffff811115610b9357610b92613462565b5b6040519080825280601f01601f191660200182016040528015610bc55781602001600182028036833780820191505090505b506000612316565b50565b61012d5481565b610c017f65d7a28e3265b37a6474929f336521b332c1681b933f6cb9f3376673440d862a33611106565b610c40576040517f08c379a0000000000000000000000000000000000000000000000000000000008152600401610c3790613722565b60405180910390fd5b610c48612493565b565b6000610c767f65d7a28e3265b37a6474929f336521b332c1681b933f6cb9f3376673440d862a83611106565b9050919050565b7f000000000000000000000000000000000000000000000000000000000000000073ffffffffffffffffffffffffffffffffffffffff163073ffffffffffffffffffffffffffffffffffffffff161415610d0c576040517f08c379a0000000000000000000000000000000000000000000000000000000008152600401610d0390613944565b60405180910390fd5b7f000000000000000000000000000000000000000000000000000000000000000073ffffffffffffffffffffffffffffffffffffffff16610d4b612270565b73ffffffffffffffffffffffffffffffffffffffff1614610da1576040517f08c379a0000000000000000000000000000000000000000000000000000000008152600401610d98906139d6565b60405180910390fd5b610daa826122c7565b610db682826001612316565b5050565b60007f000000000000000000000000000000000000000000000000000000000000000073ffffffffffffffffffffffffffffffffffffffff163073ffffffffffffffffffffffffffffffffffffffff1614610e4a576040517f08c379a0000000000000000000000000000000000000000000000000000000008152600401610e4190613a68565b60405180910390fd5b7f360894a13ba1a3210667c828492db98dca3e2076cc3735a920a3ca505d382bbc60001b905090565b6000609760009054906101000a900460ff16905090565b610e9f8161016261253590919063ffffffff16565b15610edf576040517f08c379a0000000000000000000000000000000000000000000000000000000008152600401610ed690613ad4565b60405180910390fd5b610ef481610162611fb790919063ffffffff16565b5050565b600080600083610f138161016261253590919063ffffffff16565b610f52576040517f08c379a0000000000000000000000000000000000000000000000000000000008152600401610f4990613b40565b60405180910390fd5b61016060008673ffffffffffffffffffffffffffffffffffffffff1673ffffffffffffffffffffffffffffffffffffffff16815260200190815260200160002060009054906101000a900473ffffffffffffffffffffffffffffffffffffffff1661016160008773ffffffffffffffffffffffffffffffffffffffff1673ffffffffffffffffffffffffffffffffffffffff1681526020019081526020016000205461016460009054906101000a900461ffff16935093509350509193909250565b61103e7f65d7a28e3265b37a6474929f336521b332c1681b933f6cb9f3376673440d862a826117ea565b50565b61104e6000801b8261099b565b50565b61016460009054906101000a900461ffff1681565b6110907f65d7a28e3265b37a6474929f336521b332c1681b933f6cb9f3376673440d862a8261099b565b50565b6110bd7f65d7a28e3265b37a6474929f336521b332c1681b933f6cb9f3376673440d862a33611106565b6110fc576040517f08c379a00000000000000000000000000000000000000000000000000000000081526004016110f390613722565b60405180910390fd5b611104612565565b565b600060fb600084815260200190815260200160002060000160008373ffffffffffffffffffffffffffffffffffffffff1673ffffffffffffffffffffffffffffffffffffffff16815260200190815260200160002060009054906101000a900460ff16905092915050565b600261012e5414156111b8576040517f08c379a00000000000000000000000000000000000000000000000000000000081526004016111af90613bac565b60405180910390fd5b600261012e819055508161016060008273ffffffffffffffffffffffffffffffffffffffff1673ffffffffffffffffffffffffffffffffffffffff16815260200190815260200160002060009054906101000a900473ffffffffffffffffffffffffffffffffffffffff1673ffffffffffffffffffffffffffffffffffffffff163373ffffffffffffffffffffffffffffffffffffffff161415611291576040517f08c379a000000000000000000000000000000000000000000000000000000000815260040161128890613c18565b60405180910390fd5b611299610e73565b156112d9576040517f08c379a00000000000000000000000000000000000000000000000000000000081526004016112d090613c84565b60405180910390fd5b600073ffffffffffffffffffffffffffffffffffffffff168373ffffffffffffffffffffffffffffffffffffffff161415611349576040517f08c379a000000000000000000000000000000000000000000000000000000000815260040161134090613d16565b60405180910390fd5b600073ffffffffffffffffffffffffffffffffffffffff1661016060008573ffffffffffffffffffffffffffffffffffffffff1673ffffffffffffffffffffffffffffffffffffffff16815260200190815260200160002060009054906101000a900473ffffffffffffffffffffffffffffffffffffffff1673ffffffffffffffffffffffffffffffffffffffff161480156113e55750600082115b156114bf576113f683333085612608565b3361016060008573ffffffffffffffffffffffffffffffffffffffff1673ffffffffffffffffffffffffffffffffffffffff16815260200190815260200160002060006101000a81548173ffffffffffffffffffffffffffffffffffffffff021916908373ffffffffffffffffffffffffffffffffffffffff1602179055508161016160008573ffffffffffffffffffffffffffffffffffffffff1673ffffffffffffffffffffffffffffffffffffffff168152602001908152602001600020819055506116aa565b606461016160008573ffffffffffffffffffffffffffffffffffffffff1673ffffffffffffffffffffffffffffffffffffffff1681526020019081526020016000205461016460009054906101000a900461ffff1661ffff166115229190613d65565b61152c9190613dee565b82101561156e576040517f08c379a000000000000000000000000000000000000000000000000000000000815260040161156590613e6b565b60405180910390fd5b61157a83333085612608565b6115e58361016060008673ffffffffffffffffffffffffffffffffffffffff1673ffffffffffffffffffffffffffffffffffffffff16815260200190815260200160002060009054906101000a900473ffffffffffffffffffffffffffffffffffffffff16846127b5565b3361016060008573ffffffffffffffffffffffffffffffffffffffff1673ffffffffffffffffffffffffffffffffffffffff16815260200190815260200160002060006101000a81548173ffffffffffffffffffffffffffffffffffffffff021916908373ffffffffffffffffffffffffffffffffffffffff1602179055508161016160008573ffffffffffffffffffffffffffffffffffffffff1673ffffffffffffffffffffffffffffffffffffffff168152602001908152602001600020819055505b6116bf8361016261253590919063ffffffff16565b6116da576116d883610162611fb790919063ffffffff16565b505b61016160008473ffffffffffffffffffffffffffffffffffffffff1673ffffffffffffffffffffffffffffffffffffffff1681526020019081526020016000205461016060008573ffffffffffffffffffffffffffffffffffffffff1673ffffffffffffffffffffffffffffffffffffffff16815260200190815260200160002060009054906101000a900473ffffffffffffffffffffffffffffffffffffffff1673ffffffffffffffffffffffffffffffffffffffff168473ffffffffffffffffffffffffffffffffffffffff167f1265e2e644b47afe2390e8ffc0c36002b45eb487cf378f7d03c73309b8ffde1a60405160405180910390a450600161012e819055505050565b6000801b81565b6117f382610953565b611804816117ff612008565b612010565b61180e838361218e565b505050565b7f65d7a28e3265b37a6474929f336521b332c1681b933f6cb9f3376673440d862a81565b600261012e54141561187e576040517f08c379a000000000000000000000000000000000000000000000000000000000815260040161187590613bac565b60405180910390fd5b600261012e81905550600061016060008273ffffffffffffffffffffffffffffffffffffffff1673ffffffffffffffffffffffffffffffffffffffff16815260200190815260200160002060009054906101000a900473ffffffffffffffffffffffffffffffffffffffff1673ffffffffffffffffffffffffffffffffffffffff163373ffffffffffffffffffffffffffffffffffffffff161415611958576040517f08c379a000000000000000000000000000000000000000000000000000000000815260040161194f90613c18565b60405180910390fd5b611960610e73565b156119a0576040517f08c379a000000000000000000000000000000000000000000000000000000000815260040161199790613c84565b60405180910390fd5b600073ffffffffffffffffffffffffffffffffffffffff1661016060008073ffffffffffffffffffffffffffffffffffffffff1673ffffffffffffffffffffffffffffffffffffffff16815260200190815260200160002060009054906101000a900473ffffffffffffffffffffffffffffffffffffffff1673ffffffffffffffffffffffffffffffffffffffff16148015611a3c5750600034115b15611b0a573361016060008073ffffffffffffffffffffffffffffffffffffffff1673ffffffffffffffffffffffffffffffffffffffff16815260200190815260200160002060006101000a81548173ffffffffffffffffffffffffffffffffffffffff021916908373ffffffffffffffffffffffffffffffffffffffff1602179055503461016160008073ffffffffffffffffffffffffffffffffffffffff1673ffffffffffffffffffffffffffffffffffffffff16815260200190815260200160002081905550611d25565b606461016460009054906101000a900461ffff1661ffff1661016160008073ffffffffffffffffffffffffffffffffffffffff1673ffffffffffffffffffffffffffffffffffffffff16815260200190815260200160002054611b6d9190613d65565b611b779190613dee565b341015611bb9576040517f08c379a0000000000000000000000000000000000000000000000000000000008152600401611bb090613e6b565b60405180910390fd5b61016060008073ffffffffffffffffffffffffffffffffffffffff1673ffffffffffffffffffffffffffffffffffffffff16815260200190815260200160002060009054906101000a900473ffffffffffffffffffffffffffffffffffffffff1673ffffffffffffffffffffffffffffffffffffffff166108fc349081150290604051600060405180830381858888f19350505050158015611c5f573d6000803e3d6000fd5b503361016060008073ffffffffffffffffffffffffffffffffffffffff1673ffffffffffffffffffffffffffffffffffffffff16815260200190815260200160002060006101000a81548173ffffffffffffffffffffffffffffffffffffffff021916908373ffffffffffffffffffffffffffffffffffffffff1602179055503461016160008073ffffffffffffffffffffffffffffffffffffffff1673ffffffffffffffffffffffffffffffffffffffff168152602001908152602001600020819055505b61016160008073ffffffffffffffffffffffffffffffffffffffff1673ffffffffffffffffffffffffffffffffffffffff1681526020019081526020016000205461016060008073ffffffffffffffffffffffffffffffffffffffff1673ffffffffffffffffffffffffffffffffffffffff16815260200190815260200160002060009054906101000a900473ffffffffffffffffffffffffffffffffffffffff1673ffffffffffffffffffffffffffffffffffffffff16600073ffffffffffffffffffffffffffffffffffffffff167f1265e2e644b47afe2390e8ffc0c36002b45eb487cf378f7d03c73309b8ffde1a60405160405180910390a450600161012e81905550565b60007f01ffc9a7000000000000000000000000000000000000000000000000000000007bffffffffffffffffffffffffffffffffffffffffffffffffffffffff1916827bffffffffffffffffffffffffffffffffffffffffffffffffffffffff1916149050919050565b6000611ea23061288c565b15905090565b600060019054906101000a900460ff16611ed05760008054906101000a900460ff1615611ed9565b611ed8611e97565b5b611f18576040517f08c379a0000000000000000000000000000000000000000000000000000000008152600401611f0f90613820565b60405180910390fd5b60008060019054906101000a900460ff161590508015611f68576001600060016101000a81548160ff02191690831515021790555060016000806101000a81548160ff0219169083151502179055505b611f706128af565b611f78612900565b611f80612951565b611f89826129bd565b606461012d819055508015611fb35760008060016101000a81548160ff0219169083151502179055505b5050565b6000611fdf836000018373ffffffffffffffffffffffffffffffffffffffff1660001b612ad9565b905092915050565b60606000611ff783600001612b49565b905060608190508092505050919050565b600033905090565b61201a8282611106565b6120a95761203f8173ffffffffffffffffffffffffffffffffffffffff166014612ba5565b61204d8360001c6020612ba5565b60405160200161205e929190613f9d565b6040516020818303038152906040526040517f08c379a00000000000000000000000000000000000000000000000000000000081526004016120a09190614010565b60405180910390fd5b5050565b6120b78282611106565b61218a57600160fb600084815260200190815260200160002060000160008373ffffffffffffffffffffffffffffffffffffffff1673ffffffffffffffffffffffffffffffffffffffff16815260200190815260200160002060006101000a81548160ff02191690831515021790555061212f612008565b73ffffffffffffffffffffffffffffffffffffffff168173ffffffffffffffffffffffffffffffffffffffff16837f2f8788117e7eff1d82e926ec794901d17c78024a50270940304540a733656f0d60405160405180910390a45b5050565b6121988282611106565b1561226c57600060fb600084815260200190815260200160002060000160008373ffffffffffffffffffffffffffffffffffffffff1673ffffffffffffffffffffffffffffffffffffffff16815260200190815260200160002060006101000a81548160ff021916908315150217905550612211612008565b73ffffffffffffffffffffffffffffffffffffffff168173ffffffffffffffffffffffffffffffffffffffff16837ff6391f5c32d9c69d2a47ea670b442974b53935d1edc7fd64eb21e047a839171b60405160405180910390a45b5050565b600061229e7f360894a13ba1a3210667c828492db98dca3e2076cc3735a920a3ca505d382bbc60001b612de1565b60000160009054906101000a900473ffffffffffffffffffffffffffffffffffffffff16905090565b6122d46000801b33611106565b612313576040517f08c379a000000000000000000000000000000000000000000000000000000000815260040161230a90613722565b60405180910390fd5b50565b6123427f4910fdfa16fed3260ed0e7147f7cc6da11a60208b5b9406d12a635614ffd914360001b612deb565b60000160009054906101000a900460ff16156123665761236183612df5565b61248e565b8273ffffffffffffffffffffffffffffffffffffffff166352d1902d6040518163ffffffff1660e01b815260040160206040518083038186803b1580156123ac57600080fd5b505afa9250505080156123dd57506040513d601f19601f820116820180604052508101906123da9190614047565b60015b61241c576040517f08c379a0000000000000000000000000000000000000000000000000000000008152600401612413906140e6565b60405180910390fd5b7f360894a13ba1a3210667c828492db98dca3e2076cc3735a920a3ca505d382bbc60001b8114612481576040517f08c379a000000000000000000000000000000000000000000000000000000000815260040161247890614178565b60405180910390fd5b5061248d838383612eae565b5b505050565b61249b610e73565b6124da576040517f08c379a00000000000000000000000000000000000000000000000000000000081526004016124d1906141e4565b60405180910390fd5b6000609760006101000a81548160ff0219169083151502179055507f5db9ee0a495bf2e6ff9c91a7834c1ba4fdd244a5e8aa4e537bd38aeae4b073aa61251e612008565b60405161252b9190614204565b60405180910390a1565b600061255d836000018373ffffffffffffffffffffffffffffffffffffffff1660001b612eda565b905092915050565b61256d610e73565b156125ad576040517f08c379a00000000000000000000000000000000000000000000000000000000081526004016125a490613c84565b60405180910390fd5b6001609760006101000a81548160ff0219169083151502179055507f62e78cea01bee320cd4e420270b5ea74000d11b0c9f74754ebdbfc544b05a2586125f1612008565b6040516125fe9190614204565b60405180910390a1565b600084905060008173ffffffffffffffffffffffffffffffffffffffff1663dd62ed3e33306040518363ffffffff1660e01b815260040161264a92919061421f565b60206040518083038186803b15801561266257600080fd5b505afa158015612676573d6000803e3d6000fd5b505050506040513d601f19601f8201168201806040525081019061269a919061425d565b9050828110156126df576040517f08c379a00000000000000000000000000000000000000000000000000000000081526004016126d6906142fc565b60405180910390fd5b8173ffffffffffffffffffffffffffffffffffffffff166323b872dd8686866040518463ffffffff1660e01b815260040161271c9392919061431c565b602060405180830381600087803b15801561273657600080fd5b505af115801561274a573d6000803e3d6000fd5b505050506040513d601f19601f8201168201806040525081019061276e919061437f565b6127ad576040517f08c379a00000000000000000000000000000000000000000000000000000000081526004016127a49061441e565b60405180910390fd5b505050505050565b60008390508073ffffffffffffffffffffffffffffffffffffffff1663a9059cbb84846040518363ffffffff1660e01b81526004016127f592919061443e565b602060405180830381600087803b15801561280f57600080fd5b505af1158015612823573d6000803e3d6000fd5b505050506040513d601f19601f82011682018060405250810190612847919061437f565b612886576040517f08c379a000000000000000000000000000000000000000000000000000000000815260040161287d906144d9565b60405180910390fd5b50505050565b6000808273ffffffffffffffffffffffffffffffffffffffff163b119050919050565b600060019054906101000a900460ff166128fe576040517f08c379a00000000000000000000000000000000000000000000000000000000081526004016128f59061456b565b60405180910390fd5b565b600060019054906101000a900460ff1661294f576040517f08c379a00000000000000000000000000000000000000000000000000000000081526004016129469061456b565b60405180910390fd5b565b600060019054906101000a900460ff166129a0576040517f08c379a00000000000000000000000000000000000000000000000000000000081526004016129979061456b565b60405180910390fd5b6000609760006101000a81548160ff021916908315150217905550565b600060019054906101000a900460ff166129e55760008054906101000a900460ff16156129ee565b6129ed611e97565b5b612a2d576040517f08c379a0000000000000000000000000000000000000000000000000000000008152600401612a2490613820565b60405180910390fd5b60008060019054906101000a900460ff161590508015612a7d576001600060016101000a81548160ff02191690831515021790555060016000806101000a81548160ff0219169083151502179055505b612a8a6000801b83612efd565b612ab47f65d7a28e3265b37a6474929f336521b332c1681b933f6cb9f3376673440d862a83612efd565b8015612ad55760008060016101000a81548160ff0219169083151502179055505b5050565b6000612ae58383612eda565b612b3e578260000182908060018154018082558091505060019003906000526020600020016000909190919091505582600001805490508360010160008481526020019081526020016000208190555060019050612b43565b600090505b92915050565b606081600001805480602002602001604051908101604052809291908181526020018280548015612b9957602002820191906000526020600020905b815481526020019060010190808311612b85575b50505050509050919050565b606060006002836002612bb89190613d65565b612bc2919061458b565b67ffffffffffffffff811115612bdb57612bda613462565b5b6040519080825280601f01601f191660200182016040528015612c0d5781602001600182028036833780820191505090505b5090507f300000000000000000000000000000000000000000000000000000000000000081600081518110612c4557612c446145e1565b5b60200101907effffffffffffffffffffffffffffffffffffffffffffffffffffffffffffff1916908160001a9053507f780000000000000000000000000000000000000000000000000000000000000081600181518110612ca957612ca86145e1565b5b60200101907effffffffffffffffffffffffffffffffffffffffffffffffffffffffffffff1916908160001a90535060006001846002612ce99190613d65565b612cf3919061458b565b90505b6001811115612d93577f3031323334353637383961626364656600000000000000000000000000000000600f861660108110612d3557612d346145e1565b5b1a60f81b828281518110612d4c57612d4b6145e1565b5b60200101907effffffffffffffffffffffffffffffffffffffffffffffffffffffffffffff1916908160001a905350600485901c945080612d8c90614610565b9050612cf6565b5060008414612dd7576040517f08c379a0000000000000000000000000000000000000000000000000000000008152600401612dce90614686565b60405180910390fd5b8091505092915050565b6000819050919050565b6000819050919050565b612dfe8161288c565b612e3d576040517f08c379a0000000000000000000000000000000000000000000000000000000008152600401612e3490614718565b60405180910390fd5b80612e6a7f360894a13ba1a3210667c828492db98dca3e2076cc3735a920a3ca505d382bbc60001b612de1565b60000160006101000a81548173ffffffffffffffffffffffffffffffffffffffff021916908373ffffffffffffffffffffffffffffffffffffffff16021790555050565b612eb783612f0b565b600082511180612ec45750805b15612ed557612ed38383612f5a565b505b505050565b600080836001016000848152602001908152602001600020541415905092915050565b612f0782826120ad565b5050565b612f1481612df5565b8073ffffffffffffffffffffffffffffffffffffffff167fbc7cd75a20ee27fd9adebab32041f755214dbc6bffa90cc0225b39da2e5c2d3b60405160405180910390a250565b6060612f658361288c565b612fa4576040517f08c379a0000000000000000000000000000000000000000000000000000000008152600401612f9b906147aa565b60405180910390fd5b6000808473ffffffffffffffffffffffffffffffffffffffff1684604051612fcc9190614811565b600060405180830381855af49150503d8060008114613007576040519150601f19603f3d011682016040523d82523d6000602084013e61300c565b606091505b509150915061303482826040518060600160405280602781526020016148296027913961303e565b9250505092915050565b6060831561304e5782905061309e565b6000835111156130615782518084602001fd5b816040517f08c379a00000000000000000000000000000000000000000000000000000000081526004016130959190614010565b60405180910390fd5b9392505050565b6000604051905090565b600080fd5b600080fd5b600061ffff82169050919050565b6130d0816130b9565b81146130db57600080fd5b50565b6000813590506130ed816130c7565b92915050565b600060208284031215613109576131086130af565b5b6000613117848285016130de565b91505092915050565b60007fffffffff0000000000000000000000000000000000000000000000000000000082169050919050565b61315581613120565b811461316057600080fd5b50565b6000813590506131728161314c565b92915050565b60006020828403121561318e5761318d6130af565b5b600061319c84828501613163565b91505092915050565b60008115159050919050565b6131ba816131a5565b82525050565b60006020820190506131d560008301846131b1565b92915050565b600073ffffffffffffffffffffffffffffffffffffffff82169050919050565b6000613206826131db565b9050919050565b613216816131fb565b811461322157600080fd5b50565b6000813590506132338161320d565b92915050565b60006020828403121561324f5761324e6130af565b5b600061325d84828501613224565b91505092915050565b6000819050919050565b61327981613266565b811461328457600080fd5b50565b60008135905061329681613270565b92915050565b6000602082840312156132b2576132b16130af565b5b60006132c084828501613287565b91505092915050565b6132d281613266565b82525050565b60006020820190506132ed60008301846132c9565b92915050565b600081519050919050565b600082825260208201905092915050565b6000819050602082019050919050565b613328816131fb565b82525050565b600061333a838361331f565b60208301905092915050565b6000602082019050919050565b600061335e826132f3565b61336881856132fe565b93506133738361330f565b8060005b838110156133a457815161338b888261332e565b975061339683613346565b925050600181019050613377565b5085935050505092915050565b600060208201905081810360008301526133cb8184613353565b905092915050565b600080604083850312156133ea576133e96130af565b5b60006133f885828601613287565b925050602061340985828601613224565b9150509250929050565b6000819050919050565b61342681613413565b82525050565b6000602082019050613441600083018461341d565b92915050565b600080fd5b600080fd5b6000601f19601f8301169050919050565b7f4e487b7100000000000000000000000000000000000000000000000000000000600052604160045260246000fd5b61349a82613451565b810181811067ffffffffffffffff821117156134b9576134b8613462565b5b80604052505050565b60006134cc6130a5565b90506134d88282613491565b919050565b600067ffffffffffffffff8211156134f8576134f7613462565b5b61350182613451565b9050602081019050919050565b82818337600083830152505050565b600061353061352b846134dd565b6134c2565b90508281526020810184848401111561354c5761354b61344c565b5b61355784828561350e565b509392505050565b600082601f83011261357457613573613447565b5b813561358484826020860161351d565b91505092915050565b600080604083850312156135a4576135a36130af565b5b60006135b285828601613224565b925050602083013567ffffffffffffffff8111156135d3576135d26130b4565b5b6135df8582860161355f565b9150509250929050565b6135f2816131fb565b82525050565b613601816130b9565b82525050565b600060608201905061361c60008301866135e9565b613629602083018561341d565b61363660408301846135f8565b949350505050565b600060208201905061365360008301846135f8565b92915050565b61366281613413565b811461366d57600080fd5b50565b60008135905061367f81613659565b92915050565b6000806040838503121561369c5761369b6130af565b5b60006136aa85828601613224565b92505060206136bb85828601613670565b9150509250929050565b600082825260208201905092915050565b7f4f776e61626c655061757361626c653a206163636573732064656e6965640000600082015250565b600061370c601e836136c5565b9150613717826136d6565b602082019050919050565b6000602082019050818103600083015261373b816136ff565b9050919050565b7f4b696e6756323a20696e76616c696420726174696f2100000000000000000000600082015250565b60006137786016836136c5565b915061378382613742565b602082019050919050565b600060208201905081810360008301526137a78161376b565b9050919050565b7f496e697469616c697a61626c653a20636f6e747261637420697320616c72656160008201527f647920696e697469616c697a6564000000000000000000000000000000000000602082015250565b600061380a602e836136c5565b9150613815826137ae565b604082019050919050565b60006020820190508181036000830152613839816137fd565b9050919050565b7f416363657373436f6e74726f6c3a2063616e206f6e6c792072656e6f756e636560008201527f20726f6c657320666f722073656c660000000000000000000000000000000000602082015250565b600061389c602f836136c5565b91506138a782613840565b604082019050919050565b600060208201905081810360008301526138cb8161388f565b9050919050565b7f46756e6374696f6e206d7573742062652063616c6c6564207468726f7567682060008201527f64656c656761746563616c6c0000000000000000000000000000000000000000602082015250565b600061392e602c836136c5565b9150613939826138d2565b604082019050919050565b6000602082019050818103600083015261395d81613921565b9050919050565b7f46756e6374696f6e206d7573742062652063616c6c6564207468726f7567682060008201527f6163746976652070726f78790000000000000000000000000000000000000000602082015250565b60006139c0602c836136c5565b91506139cb82613964565b604082019050919050565b600060208201905081810360008301526139ef816139b3565b9050919050565b7f555550535570677261646561626c653a206d757374206e6f742062652063616c60008201527f6c6564207468726f7567682064656c656761746563616c6c0000000000000000602082015250565b6000613a526038836136c5565b9150613a5d826139f6565b604082019050919050565b60006020820190508181036000830152613a8181613a45565b9050919050565b7f416c726561647920616464656420746869732067616d65000000000000000000600082015250565b6000613abe6017836136c5565b9150613ac982613a88565b602082019050919050565b60006020820190508181036000830152613aed81613ab1565b9050919050565b7f4b696e673a20556e737570706f72746564206d6f646521000000000000000000600082015250565b6000613b2a6017836136c5565b9150613b3582613af4565b602082019050919050565b60006020820190508181036000830152613b5981613b1d565b9050919050565b7f5265656e7472616e637947756172643a207265656e7472616e742063616c6c00600082015250565b6000613b96601f836136c5565b9150613ba182613b60565b602082019050919050565b60006020820190508181036000830152613bc581613b89565b9050919050565b7f4b696e673a20596f752061726520616c7265616479206b696e67210000000000600082015250565b6000613c02601b836136c5565b9150613c0d82613bcc565b602082019050919050565b60006020820190508181036000830152613c3181613bf5565b9050919050565b7f5061757361626c653a2070617573656400000000000000000000000000000000600082015250565b6000613c6e6010836136c5565b9150613c7982613c38565b602082019050919050565b60006020820190508181036000830152613c9d81613c61565b9050919050565b7f4b696e673a207468697320746f6b656e206973206e6f7420737570706f72746560008201527f6421000000000000000000000000000000000000000000000000000000000000602082015250565b6000613d006022836136c5565b9150613d0b82613ca4565b604082019050919050565b60006020820190508181036000830152613d2f81613cf3565b9050919050565b7f4e487b7100000000000000000000000000000000000000000000000000000000600052601160045260246000fd5b6000613d7082613413565b9150613d7b83613413565b9250817fffffffffffffffffffffffffffffffffffffffffffffffffffffffffffffffff0483118215151615613db457613db3613d36565b5b828202905092915050565b7f4e487b7100000000000000000000000000000000000000000000000000000000600052601260045260246000fd5b6000613df982613413565b9150613e0483613413565b925082613e1457613e13613dbf565b5b828204905092915050565b7f4b696e673a204e6f7420656e6f7567682066756e642100000000000000000000600082015250565b6000613e556016836136c5565b9150613e6082613e1f565b602082019050919050565b60006020820190508181036000830152613e8481613e48565b9050919050565b600081905092915050565b7f416363657373436f6e74726f6c3a206163636f756e7420000000000000000000600082015250565b6000613ecc601783613e8b565b9150613ed782613e96565b601782019050919050565b600081519050919050565b60005b83811015613f0b578082015181840152602081019050613ef0565b83811115613f1a576000848401525b50505050565b6000613f2b82613ee2565b613f358185613e8b565b9350613f45818560208601613eed565b80840191505092915050565b7f206973206d697373696e6720726f6c6520000000000000000000000000000000600082015250565b6000613f87601183613e8b565b9150613f9282613f51565b601182019050919050565b6000613fa882613ebf565b9150613fb48285613f20565b9150613fbf82613f7a565b9150613fcb8284613f20565b91508190509392505050565b6000613fe282613ee2565b613fec81856136c5565b9350613ffc818560208601613eed565b61400581613451565b840191505092915050565b6000602082019050818103600083015261402a8184613fd7565b905092915050565b60008151905061404181613270565b92915050565b60006020828403121561405d5761405c6130af565b5b600061406b84828501614032565b91505092915050565b7f45524331393637557067726164653a206e657720696d706c656d656e7461746960008201527f6f6e206973206e6f742055555053000000000000000000000000000000000000602082015250565b60006140d0602e836136c5565b91506140db82614074565b604082019050919050565b600060208201905081810360008301526140ff816140c3565b9050919050565b7f45524331393637557067726164653a20756e737570706f727465642070726f7860008201527f6961626c65555549440000000000000000000000000000000000000000000000602082015250565b60006141626029836136c5565b915061416d82614106565b604082019050919050565b6000602082019050818103600083015261419181614155565b9050919050565b7f5061757361626c653a206e6f7420706175736564000000000000000000000000600082015250565b60006141ce6014836136c5565b91506141d982614198565b602082019050919050565b600060208201905081810360008301526141fd816141c1565b9050919050565b600060208201905061421960008301846135e9565b92915050565b600060408201905061423460008301856135e9565b61424160208301846135e9565b9392505050565b60008151905061425781613659565b92915050565b600060208284031215614273576142726130af565b5b600061428184828501614248565b91505092915050565b7f4b696e673a20546f6b656e207472616e666572206973206e6f7420617070726f60008201527f7665642100000000000000000000000000000000000000000000000000000000602082015250565b60006142e66024836136c5565b91506142f18261428a565b604082019050919050565b60006020820190508181036000830152614315816142d9565b9050919050565b600060608201905061433160008301866135e9565b61433e60208301856135e9565b61434b604083018461341d565b949350505050565b61435c816131a5565b811461436757600080fd5b50565b60008151905061437981614353565b92915050565b600060208284031215614395576143946130af565b5b60006143a38482850161436a565b91505092915050565b7f4b696e673a20455243323020746f6b656e207472616e73666572206661696c6560008201527f6400000000000000000000000000000000000000000000000000000000000000602082015250565b60006144086021836136c5565b9150614413826143ac565b604082019050919050565b60006020820190508181036000830152614437816143fb565b9050919050565b600060408201905061445360008301856135e9565b614460602083018461341d565b9392505050565b7f4b696e673a206661696c65642073656e6420746f6b656e20746f20707265766960008201527f6f7573204b696e67000000000000000000000000000000000000000000000000602082015250565b60006144c36028836136c5565b91506144ce82614467565b604082019050919050565b600060208201905081810360008301526144f2816144b6565b9050919050565b7f496e697469616c697a61626c653a20636f6e7472616374206973206e6f74206960008201527f6e697469616c697a696e67000000000000000000000000000000000000000000602082015250565b6000614555602b836136c5565b9150614560826144f9565b604082019050919050565b6000602082019050818103600083015261458481614548565b9050919050565b600061459682613413565b91506145a183613413565b9250827fffffffffffffffffffffffffffffffffffffffffffffffffffffffffffffffff038211156145d6576145d5613d36565b5b828201905092915050565b7f4e487b7100000000000000000000000000000000000000000000000000000000600052603260045260246000fd5b600061461b82613413565b9150600082141561462f5761462e613d36565b5b600182039050919050565b7f537472696e67733a20686578206c656e67746820696e73756666696369656e74600082015250565b60006146706020836136c5565b915061467b8261463a565b602082019050919050565b6000602082019050818103600083015261469f81614663565b9050919050565b7f455243313936373a206e657720696d706c656d656e746174696f6e206973206e60008201527f6f74206120636f6e747261637400000000000000000000000000000000000000602082015250565b6000614702602d836136c5565b915061470d826146a6565b604082019050919050565b60006020820190508181036000830152614731816146f5565b9050919050565b7f416464726573733a2064656c65676174652063616c6c20746f206e6f6e2d636f60008201527f6e74726163740000000000000000000000000000000000000000000000000000602082015250565b60006147946026836136c5565b915061479f82614738565b604082019050919050565b600060208201905081810360008301526147c381614787565b9050919050565b600081519050919050565b600081905092915050565b60006147eb826147ca565b6147f581856147d5565b9350614805818560208601613eed565b80840191505092915050565b600061481d82846147e0565b91508190509291505056fe416464726573733a206c6f772d6c6576656c2064656c65676174652063616c6c206661696c6564a264697066735822122009141ba62c2732860a4c81e0cc2820815f9d0cddbe171bd3ad46bfda555a9ae164736f6c63430008090033",
  "linkReferences": {},
  "deployedLinkReferences": {}
}