{
  "_format": "hh-sol-artifact-1",
  "contractName": "MockUSDC",
  "sourceName": "contracts/MockUSDC.sol",
  "abi": [
    {
      "inputs": [
        {
          "internalType": "string",
          "name": "name",
          "type": "string"
        },
        {
          "internalType": "string",
          "name": "symbol",
          "type": "string"
        }
      ],
      "stateMutability": "nonpayable",
      "type": "constructor"
    },
    {
      "anonymous": false,
      "inputs": [
        {
          "indexed": true,
          "internalType": "address",
          "name": "owner",
          "type": "address"
        },
        {
          "indexed": true,
          "internalType": "address",
          "name": "spender",
          "type": "address"
        },
        {
          "indexed": false,
          "internalType": "uint256",
          "name": "value",
          "type": "uint256"
        }
      ],
      "name": "Approval",
      "type": "event"
    },
    {
      "anonymous": false,
      "inputs": [
        {
          "indexed": false,
          "internalType": "address",
          "name": "account",
          "type": "address"
        }
      ],
      "name": "Paused",
      "type": "event"
    },
    {
      "anonymous": false,
      "inputs": [
        {
          "indexed": true,
          "internalType": "bytes32",
          "name": "role",
          "type": "bytes32"
        },
        {
          "indexed": true,
          "internalType": "bytes32",
          "name": "previousAdminRole",
          "type": "bytes32"
        },
        {
          "indexed": true,
          "internalType": "bytes32",
          "name": "newAdminRole",
          "type": "bytes32"
        }
      ],
      "name": "RoleAdminChanged",
      "type": "event"
    },
    {
      "anonymous": false,
      "inputs": [
        {
          "indexed": true,
          "internalType": "bytes32",
          "name": "role",
          "type": "bytes32"
        },
        {
          "indexed": true,
          "internalType": "address",
          "name": "account",
          "type": "address"
        },
        {
          "indexed": true,
          "internalType": "address",
          "name": "sender",
          "type": "address"
        }
      ],
      "name": "RoleGranted",
      "type": "event"
    },
    {
      "anonymous": false,
      "inputs": [
        {
          "indexed": true,
          "internalType": "bytes32",
          "name": "role",
          "type": "bytes32"
        },
        {
          "indexed": true,
          "internalType": "address",
          "name": "account",
          "type": "address"
        },
        {
          "indexed": true,
          "internalType": "address",
          "name": "sender",
          "type": "address"
        }
      ],
      "name": "RoleRevoked",
      "type": "event"
    },
    {
      "anonymous": false,
      "inputs": [
        {
          "indexed": true,
          "internalType": "address",
          "name": "from",
          "type": "address"
        },
        {
          "indexed": true,
          "internalType": "address",
          "name": "to",
          "type": "address"
        },
        {
          "indexed": false,
          "internalType": "uint256",
          "name": "value",
          "type": "uint256"
        }
      ],
      "name": "Transfer",
      "type": "event"
    },
    {
      "anonymous": false,
      "inputs": [
        {
          "indexed": false,
          "internalType": "address",
          "name": "account",
          "type": "address"
        }
      ],
      "name": "Unpaused",
      "type": "event"
    },
    {
      "inputs": [],
      "name": "DEFAULT_ADMIN_ROLE",
      "outputs": [
        {
          "internalType": "bytes32",
          "name": "",
          "type": "bytes32"
        }
      ],
      "stateMutability": "view",
      "type": "function"
    },
    {
      "inputs": [],
      "name": "MINTER_ROLE",
      "outputs": [
        {
          "internalType": "bytes32",
          "name": "",
          "type": "bytes32"
        }
      ],
      "stateMutability": "view",
      "type": "function"
    },
    {
      "inputs": [],
      "name": "PAUSER_ROLE",
      "outputs": [
        {
          "internalType": "bytes32",
          "name": "",
          "type": "bytes32"
        }
      ],
      "stateMutability": "view",
      "type": "function"
    },
    {
      "inputs": [
        {
          "internalType": "address",
          "name": "owner",
          "type": "address"
        },
        {
          "internalType": "address",
          "name": "spender",
          "type": "address"
        }
      ],
      "name": "allowance",
      "outputs": [
        {
          "internalType": "uint256",
          "name": "",
          "type": "uint256"
        }
      ],
      "stateMutability": "view",
      "type": "function"
    },
    {
      "inputs": [
        {
          "internalType": "address",
          "name": "spender",
          "type": "address"
        },
        {
          "internalType": "uint256",
          "name": "amount",
          "type": "uint256"
        }
      ],
      "name": "approve",
      "outputs": [
        {
          "internalType": "bool",
          "name": "",
          "type": "bool"
        }
      ],
      "stateMutability": "nonpayable",
      "type": "function"
    },
    {
      "inputs": [
        {
          "internalType": "address",
          "name": "account",
          "type": "address"
        }
      ],
      "name": "balanceOf",
      "outputs": [
        {
          "internalType": "uint256",
          "name": "",
          "type": "uint256"
        }
      ],
      "stateMutability": "view",
      "type": "function"
    },
    {
      "inputs": [
        {
          "internalType": "uint256",
          "name": "amount",
          "type": "uint256"
        }
      ],
      "name": "burn",
      "outputs": [],
      "stateMutability": "nonpayable",
      "type": "function"
    },
    {
      "inputs": [
        {
          "internalType": "address",
          "name": "account",
          "type": "address"
        },
        {
          "internalType": "uint256",
          "name": "amount",
          "type": "uint256"
        }
      ],
      "name": "burnFrom",
      "outputs": [],
      "stateMutability": "nonpayable",
      "type": "function"
    },
    {
      "inputs": [],
      "name": "decimals",
      "outputs": [
        {
          "internalType": "uint8",
          "name": "",
          "type": "uint8"
        }
      ],
      "stateMutability": "view",
      "type": "function"
    },
    {
      "inputs": [
        {
          "internalType": "address",
          "name": "spender",
          "type": "address"
        },
        {
          "internalType": "uint256",
          "name": "subtractedValue",
          "type": "uint256"
        }
      ],
      "name": "decreaseAllowance",
      "outputs": [
        {
          "internalType": "bool",
          "name": "",
          "type": "bool"
        }
      ],
      "stateMutability": "nonpayable",
      "type": "function"
    },
    {
      "inputs": [
        {
          "internalType": "bytes32",
          "name": "role",
          "type": "bytes32"
        }
      ],
      "name": "getRoleAdmin",
      "outputs": [
        {
          "internalType": "bytes32",
          "name": "",
          "type": "bytes32"
        }
      ],
      "stateMutability": "view",
      "type": "function"
    },
    {
      "inputs": [
        {
          "internalType": "bytes32",
          "name": "role",
          "type": "bytes32"
        },
        {
          "internalType": "uint256",
          "name": "index",
          "type": "uint256"
        }
      ],
      "name": "getRoleMember",
      "outputs": [
        {
          "internalType": "address",
          "name": "",
          "type": "address"
        }
      ],
      "stateMutability": "view",
      "type": "function"
    },
    {
      "inputs": [
        {
          "internalType": "bytes32",
          "name": "role",
          "type": "bytes32"
        }
      ],
      "name": "getRoleMemberCount",
      "outputs": [
        {
          "internalType": "uint256",
          "name": "",
          "type": "uint256"
        }
      ],
      "stateMutability": "view",
      "type": "function"
    },
    {
      "inputs": [
        {
          "internalType": "bytes32",
          "name": "role",
          "type": "bytes32"
        },
        {
          "internalType": "address",
          "name": "account",
          "type": "address"
        }
      ],
      "name": "grantRole",
      "outputs": [],
      "stateMutability": "nonpayable",
      "type": "function"
    },
    {
      "inputs": [
        {
          "internalType": "bytes32",
          "name": "role",
          "type": "bytes32"
        },
        {
          "internalType": "address",
          "name": "account",
          "type": "address"
        }
      ],
      "name": "hasRole",
      "outputs": [
        {
          "internalType": "bool",
          "name": "",
          "type": "bool"
        }
      ],
      "stateMutability": "view",
      "type": "function"
    },
    {
      "inputs": [
        {
          "internalType": "address",
          "name": "spender",
          "type": "address"
        },
        {
          "internalType": "uint256",
          "name": "addedValue",
          "type": "uint256"
        }
      ],
      "name": "increaseAllowance",
      "outputs": [
        {
          "internalType": "bool",
          "name": "",
          "type": "bool"
        }
      ],
      "stateMutability": "nonpayable",
      "type": "function"
    },
    {
      "inputs": [
        {
          "internalType": "address",
          "name": "to",
          "type": "address"
        },
        {
          "internalType": "uint256",
          "name": "amount",
          "type": "uint256"
        }
      ],
      "name": "mint",
      "outputs": [],
      "stateMutability": "nonpayable",
      "type": "function"
    },
    {
      "inputs": [],
      "name": "name",
      "outputs": [
        {
          "internalType": "string",
          "name": "",
          "type": "string"
        }
      ],
      "stateMutability": "view",
      "type": "function"
    },
    {
      "inputs": [],
      "name": "pause",
      "outputs": [],
      "stateMutability": "nonpayable",
      "type": "function"
    },
    {
      "inputs": [],
      "name": "paused",
      "outputs": [
        {
          "internalType": "bool",
          "name": "",
          "type": "bool"
        }
      ],
      "stateMutability": "view",
      "type": "function"
    },
    {
      "inputs": [
        {
          "internalType": "bytes32",
          "name": "role",
          "type": "bytes32"
        },
        {
          "internalType": "address",
          "name": "account",
          "type": "address"
        }
      ],
      "name": "renounceRole",
      "outputs": [],
      "stateMutability": "nonpayable",
      "type": "function"
    },
    {
      "inputs": [
        {
          "internalType": "bytes32",
          "name": "role",
          "type": "bytes32"
        },
        {
          "internalType": "address",
          "name": "account",
          "type": "address"
        }
      ],
      "name": "revokeRole",
      "outputs": [],
      "stateMutability": "nonpayable",
      "type": "function"
    },
    {
      "inputs": [
        {
          "internalType": "bytes4",
          "name": "interfaceId",
          "type": "bytes4"
        }
      ],
      "name": "supportsInterface",
      "outputs": [
        {
          "internalType": "bool",
          "name": "",
          "type": "bool"
        }
      ],
      "stateMutability": "view",
      "type": "function"
    },
    {
      "inputs": [],
      "name": "symbol",
      "outputs": [
        {
          "internalType": "string",
          "name": "",
          "type": "string"
        }
      ],
      "stateMutability": "view",
      "type": "function"
    },
    {
      "inputs": [
        {
          "internalType": "address",
          "name": "to",
          "type": "address"
        },
        {
          "internalType": "uint256",
          "name": "amount",
          "type": "uint256"
        }
      ],
      "name": "testMint",
      "outputs": [],
      "stateMutability": "nonpayable",
      "type": "function"
    },
    {
      "inputs": [],
      "name": "totalSupply",
      "outputs": [
        {
          "internalType": "uint256",
          "name": "",
          "type": "uint256"
        }
      ],
      "stateMutability": "view",
      "type": "function"
    },
    {
      "inputs": [
        {
          "internalType": "address",
          "name": "to",
          "type": "address"
        },
        {
          "internalType": "uint256",
          "name": "amount",
          "type": "uint256"
        }
      ],
      "name": "transfer",
      "outputs": [
        {
          "internalType": "bool",
          "name": "",
          "type": "bool"
        }
      ],
      "stateMutability": "nonpayable",
      "type": "function"
    },
    {
      "inputs": [
        {
          "internalType": "address",
          "name": "from",
          "type": "address"
        },
        {
          "internalType": "address",
          "name": "to",
          "type": "address"
        },
        {
          "internalType": "uint256",
          "name": "amount",
          "type": "uint256"
        }
      ],
      "name": "transferFrom",
      "outputs": [
        {
          "internalType": "bool",
          "name": "",
          "type": "bool"
        }
      ],
      "stateMutability": "nonpayable",
      "type": "function"
    },
    {
      "inputs": [],
      "name": "unpause",
      "outputs": [],
      "stateMutability": "nonpayable",
      "type": "function"
    }
  ],
  "bytecode": "0x60806040523480156200001157600080fd5b506040516200387f3803806200387f83398181016040528101906200003791906200061d565b81818181816005908051906020019062000053929190620003d0565b5080600690805190602001906200006c929190620003d0565b5050506000600760006101000a81548160ff021916908315150217905550620000ae6000801b620000a26200013a60201b60201c565b6200014260201b60201c565b620000ef7f9f2df0fed2c77648de5860a4cc508cd0818c85b8b8a1ab4ceeef8d981c8956a6620000e36200013a60201b60201c565b6200014260201b60201c565b620001307f65d7a28e3265b37a6474929f336521b332c1681b933f6cb9f3376673440d862a620001246200013a60201b60201c565b6200014260201b60201c565b5050505062000707565b600033905090565b6200015482826200015860201b60201c565b5050565b6200016f8282620001a060201b62000d3b1760201c565b6200019b81600160008581526020019081526020016000206200029160201b62000e1b1790919060201c565b505050565b620001b28282620002c960201b60201c565b6200028d57600160008084815260200190815260200160002060000160008373ffffffffffffffffffffffffffffffffffffffff1673ffffffffffffffffffffffffffffffffffffffff16815260200190815260200160002060006101000a81548160ff021916908315150217905550620002326200013a60201b60201c565b73ffffffffffffffffffffffffffffffffffffffff168173ffffffffffffffffffffffffffffffffffffffff16837f2f8788117e7eff1d82e926ec794901d17c78024a50270940304540a733656f0d60405160405180910390a45b5050565b6000620002c1836000018373ffffffffffffffffffffffffffffffffffffffff1660001b6200033360201b60201c565b905092915050565b600080600084815260200190815260200160002060000160008373ffffffffffffffffffffffffffffffffffffffff1673ffffffffffffffffffffffffffffffffffffffff16815260200190815260200160002060009054906101000a900460ff16905092915050565b6000620003478383620003ad60201b60201c565b620003a2578260000182908060018154018082558091505060019003906000526020600020016000909190919091505582600001805490508360010160008481526020019081526020016000208190555060019050620003a7565b600090505b92915050565b600080836001016000848152602001908152602001600020541415905092915050565b828054620003de90620006d1565b90600052602060002090601f0160209004810192826200040257600085556200044e565b82601f106200041d57805160ff19168380011785556200044e565b828001600101855582156200044e579182015b828111156200044d57825182559160200191906001019062000430565b5b5090506200045d919062000461565b5090565b5b808211156200047c57600081600090555060010162000462565b5090565b6000604051905090565b600080fd5b600080fd5b600080fd5b600080fd5b6000601f19601f8301169050919050565b7f4e487b7100000000000000000000000000000000000000000000000000000000600052604160045260246000fd5b620004e9826200049e565b810181811067ffffffffffffffff821117156200050b576200050a620004af565b5b80604052505050565b60006200052062000480565b90506200052e8282620004de565b919050565b600067ffffffffffffffff821115620005515762000550620004af565b5b6200055c826200049e565b9050602081019050919050565b60005b83811015620005895780820151818401526020810190506200056c565b8381111562000599576000848401525b50505050565b6000620005b6620005b08462000533565b62000514565b905082815260208101848484011115620005d557620005d462000499565b5b620005e284828562000569565b509392505050565b600082601f83011262000602576200060162000494565b5b8151620006148482602086016200059f565b91505092915050565b600080604083850312156200063757620006366200048a565b5b600083015167ffffffffffffffff8111156200065857620006576200048f565b5b6200066685828601620005ea565b925050602083015167ffffffffffffffff8111156200068a57620006896200048f565b5b6200069885828601620005ea565b9150509250929050565b7f4e487b7100000000000000000000000000000000000000000000000000000000600052602260045260246000fd5b60006002820490506001821680620006ea57607f821691505b60208210811415620007015762000700620006a2565b5b50919050565b61316880620007176000396000f3fe608060405234801561001057600080fd5b50600436106101cf5760003560e01c806370a0823111610104578063a457c2d7116100a2578063d547741f11610071578063d547741f14610556578063dd62ed3e14610572578063e63ab1e9146105a2578063f28e093d146105c0576101cf565b8063a457c2d7146104a8578063a9059cbb146104d8578063ca15c87314610508578063d539139314610538576101cf565b80639010d07c116100de5780639010d07c1461040c57806391d148541461043c57806395d89b411461046c578063a217fddf1461048a576101cf565b806370a08231146103b657806379cc6790146103e65780638456cb5914610402576101cf565b8063313ce567116101715780633f4ba83a1161014b5780633f4ba83a1461035657806340c10f191461036057806342966c681461037c5780635c975abb14610398576101cf565b8063313ce567146102ec57806336568abe1461030a5780633950935114610326576101cf565b806318160ddd116101ad57806318160ddd1461025257806323b872dd14610270578063248a9ca3146102a05780632f2ff15d146102d0576101cf565b806301ffc9a7146101d457806306fdde0314610204578063095ea7b314610222575b600080fd5b6101ee60048036038101906101e99190611ffc565b6105dc565b6040516101fb9190612044565b60405180910390f35b61020c610656565b60405161021991906120f8565b60405180910390f35b61023c600480360381019061023791906121ae565b6106e8565b6040516102499190612044565b60405180910390f35b61025a61070b565b60405161026791906121fd565b60405180910390f35b61028a60048036038101906102859190612218565b610715565b6040516102979190612044565b60405180910390f35b6102ba60048036038101906102b591906122a1565b610744565b6040516102c791906122dd565b60405180910390f35b6102ea60048036038101906102e591906122f8565b610763565b005b6102f4610784565b6040516103019190612354565b60405180910390f35b610324600480360381019061031f91906122f8565b61078d565b005b610340600480360381019061033b91906121ae565b610810565b60405161034d9190612044565b60405180910390f35b61035e610847565b005b61037a600480360381019061037591906121ae565b6108c1565b005b6103966004803603810190610391919061236f565b61093f565b005b6103a0610953565b6040516103ad9190612044565b60405180910390f35b6103d060048036038101906103cb919061239c565b61096a565b6040516103dd91906121fd565b60405180910390f35b61040060048036038101906103fb91906121ae565b6109b3565b005b61040a6109d3565b005b610426600480360381019061042191906123c9565b610a4d565b6040516104339190612418565b60405180910390f35b610456600480360381019061045191906122f8565b610a7c565b6040516104639190612044565b60405180910390f35b610474610ae6565b60405161048191906120f8565b60405180910390f35b610492610b78565b60405161049f91906122dd565b60405180910390f35b6104c260048036038101906104bd91906121ae565b610b7f565b6040516104cf9190612044565b60405180910390f35b6104f260048036038101906104ed91906121ae565b610bf6565b6040516104ff9190612044565b60405180910390f35b610522600480360381019061051d91906122a1565b610c19565b60405161052f91906121fd565b60405180910390f35b610540610c3d565b60405161054d91906122dd565b60405180910390f35b610570600480360381019061056b91906122f8565b610c61565b005b61058c60048036038101906105879190612433565b610c82565b60405161059991906121fd565b60405180910390f35b6105aa610d09565b6040516105b791906122dd565b60405180910390f35b6105da60048036038101906105d591906121ae565b610d2d565b005b60007f5a05180f000000000000000000000000000000000000000000000000000000007bffffffffffffffffffffffffffffffffffffffffffffffffffffffff1916827bffffffffffffffffffffffffffffffffffffffffffffffffffffffff1916148061064f575061064e82610e4b565b5b9050919050565b606060058054610665906124a2565b80601f0160208091040260200160405190810160405280929190818152602001828054610691906124a2565b80156106de5780601f106106b3576101008083540402835291602001916106de565b820191906000526020600020905b8154815290600101906020018083116106c157829003601f168201915b5050505050905090565b6000806106f3610ec5565b9050610700818585610ecd565b600191505092915050565b6000600454905090565b600080610720610ec5565b905061072d858285611098565b610738858585611124565b60019150509392505050565b6000806000838152602001908152602001600020600101549050919050565b61076c82610744565b610775816113a8565b61077f83836113bc565b505050565b60006012905090565b610795610ec5565b73ffffffffffffffffffffffffffffffffffffffff168173ffffffffffffffffffffffffffffffffffffffff1614610802576040517f08c379a00000000000000000000000000000000000000000000000000000000081526004016107f990612546565b60405180910390fd5b61080c82826113f0565b5050565b60008061081b610ec5565b905061083c81858561082d8589610c82565b6108379190612595565b610ecd565b600191505092915050565b6108787f65d7a28e3265b37a6474929f336521b332c1681b933f6cb9f3376673440d862a610873610ec5565b610a7c565b6108b7576040517f08c379a00000000000000000000000000000000000000000000000000000000081526004016108ae9061265d565b60405180910390fd5b6108bf611424565b565b6108f27f9f2df0fed2c77648de5860a4cc508cd0818c85b8b8a1ab4ceeef8d981c8956a66108ed610ec5565b610a7c565b610931576040517f08c379a0000000000000000000000000000000000000000000000000000000008152600401610928906126ef565b60405180910390fd5b61093b8282611487565b5050565b61095061094a610ec5565b826115e8565b50565b6000600760009054906101000a900460ff16905090565b6000600260008373ffffffffffffffffffffffffffffffffffffffff1673ffffffffffffffffffffffffffffffffffffffff168152602001908152602001600020549050919050565b6109c5826109bf610ec5565b83611098565b6109cf82826115e8565b5050565b610a047f65d7a28e3265b37a6474929f336521b332c1681b933f6cb9f3376673440d862a6109ff610ec5565b610a7c565b610a43576040517f08c379a0000000000000000000000000000000000000000000000000000000008152600401610a3a90612781565b60405180910390fd5b610a4b6117c1565b565b6000610a74826001600086815260200190815260200160002061182490919063ffffffff16565b905092915050565b600080600084815260200190815260200160002060000160008373ffffffffffffffffffffffffffffffffffffffff1673ffffffffffffffffffffffffffffffffffffffff16815260200190815260200160002060009054906101000a900460ff16905092915050565b606060068054610af5906124a2565b80601f0160208091040260200160405190810160405280929190818152602001828054610b21906124a2565b8015610b6e5780601f10610b4357610100808354040283529160200191610b6e565b820191906000526020600020905b815481529060010190602001808311610b5157829003601f168201915b5050505050905090565b6000801b81565b600080610b8a610ec5565b90506000610b988286610c82565b905083811015610bdd576040517f08c379a0000000000000000000000000000000000000000000000000000000008152600401610bd490612813565b60405180910390fd5b610bea8286868403610ecd565b60019250505092915050565b600080610c01610ec5565b9050610c0e818585611124565b600191505092915050565b6000610c366001600084815260200190815260200160002061183e565b9050919050565b7f9f2df0fed2c77648de5860a4cc508cd0818c85b8b8a1ab4ceeef8d981c8956a681565b610c6a82610744565b610c73816113a8565b610c7d83836113f0565b505050565b6000600360008473ffffffffffffffffffffffffffffffffffffffff1673ffffffffffffffffffffffffffffffffffffffff16815260200190815260200160002060008373ffffffffffffffffffffffffffffffffffffffff1673ffffffffffffffffffffffffffffffffffffffff16815260200190815260200160002054905092915050565b7f65d7a28e3265b37a6474929f336521b332c1681b933f6cb9f3376673440d862a81565b610d378282611487565b5050565b610d458282610a7c565b610e1757600160008084815260200190815260200160002060000160008373ffffffffffffffffffffffffffffffffffffffff1673ffffffffffffffffffffffffffffffffffffffff16815260200190815260200160002060006101000a81548160ff021916908315150217905550610dbc610ec5565b73ffffffffffffffffffffffffffffffffffffffff168173ffffffffffffffffffffffffffffffffffffffff16837f2f8788117e7eff1d82e926ec794901d17c78024a50270940304540a733656f0d60405160405180910390a45b5050565b6000610e43836000018373ffffffffffffffffffffffffffffffffffffffff1660001b611853565b905092915050565b60007f7965db0b000000000000000000000000000000000000000000000000000000007bffffffffffffffffffffffffffffffffffffffffffffffffffffffff1916827bffffffffffffffffffffffffffffffffffffffffffffffffffffffff19161480610ebe5750610ebd826118c3565b5b9050919050565b600033905090565b600073ffffffffffffffffffffffffffffffffffffffff168373ffffffffffffffffffffffffffffffffffffffff161415610f3d576040517f08c379a0000000000000000000000000000000000000000000000000000000008152600401610f34906128a5565b60405180910390fd5b600073ffffffffffffffffffffffffffffffffffffffff168273ffffffffffffffffffffffffffffffffffffffff161415610fad576040517f08c379a0000000000000000000000000000000000000000000000000000000008152600401610fa490612937565b60405180910390fd5b80600360008573ffffffffffffffffffffffffffffffffffffffff1673ffffffffffffffffffffffffffffffffffffffff16815260200190815260200160002060008473ffffffffffffffffffffffffffffffffffffffff1673ffffffffffffffffffffffffffffffffffffffff168152602001908152602001600020819055508173ffffffffffffffffffffffffffffffffffffffff168373ffffffffffffffffffffffffffffffffffffffff167f8c5be1e5ebec7d5bd14f71427d1e84f3dd0314c0f7b2291e5b200ac8c7c3b9258360405161108b91906121fd565b60405180910390a3505050565b60006110a48484610c82565b90507fffffffffffffffffffffffffffffffffffffffffffffffffffffffffffffffff811461111e5781811015611110576040517f08c379a0000000000000000000000000000000000000000000000000000000008152600401611107906129a3565b60405180910390fd5b61111d8484848403610ecd565b5b50505050565b600073ffffffffffffffffffffffffffffffffffffffff168373ffffffffffffffffffffffffffffffffffffffff161415611194576040517f08c379a000000000000000000000000000000000000000000000000000000000815260040161118b90612a35565b60405180910390fd5b600073ffffffffffffffffffffffffffffffffffffffff168273ffffffffffffffffffffffffffffffffffffffff161415611204576040517f08c379a00000000000000000000000000000000000000000000000000000000081526004016111fb90612ac7565b60405180910390fd5b61120f83838361192d565b6000600260008573ffffffffffffffffffffffffffffffffffffffff1673ffffffffffffffffffffffffffffffffffffffff16815260200190815260200160002054905081811015611296576040517f08c379a000000000000000000000000000000000000000000000000000000000815260040161128d90612b59565b60405180910390fd5b818103600260008673ffffffffffffffffffffffffffffffffffffffff1673ffffffffffffffffffffffffffffffffffffffff1681526020019081526020016000208190555081600260008573ffffffffffffffffffffffffffffffffffffffff1673ffffffffffffffffffffffffffffffffffffffff168152602001908152602001600020600082825461132b9190612595565b925050819055508273ffffffffffffffffffffffffffffffffffffffff168473ffffffffffffffffffffffffffffffffffffffff167fddf252ad1be2c89b69c2b068fc378daa952ba7f163c4a11628f55a4df523b3ef8460405161138f91906121fd565b60405180910390a36113a284848461193d565b50505050565b6113b9816113b4610ec5565b611942565b50565b6113c68282610d3b565b6113eb8160016000858152602001908152602001600020610e1b90919063ffffffff16565b505050565b6113fa82826119df565b61141f8160016000858152602001908152602001600020611ac090919063ffffffff16565b505050565b61142c611af0565b6000600760006101000a81548160ff0219169083151502179055507f5db9ee0a495bf2e6ff9c91a7834c1ba4fdd244a5e8aa4e537bd38aeae4b073aa611470610ec5565b60405161147d9190612418565b60405180910390a1565b600073ffffffffffffffffffffffffffffffffffffffff168273ffffffffffffffffffffffffffffffffffffffff1614156114f7576040517f08c379a00000000000000000000000000000000000000000000000000000000081526004016114ee90612bc5565b60405180910390fd5b6115036000838361192d565b80600460008282546115159190612595565b9250508190555080600260008473ffffffffffffffffffffffffffffffffffffffff1673ffffffffffffffffffffffffffffffffffffffff168152602001908152602001600020600082825461156b9190612595565b925050819055508173ffffffffffffffffffffffffffffffffffffffff16600073ffffffffffffffffffffffffffffffffffffffff167fddf252ad1be2c89b69c2b068fc378daa952ba7f163c4a11628f55a4df523b3ef836040516115d091906121fd565b60405180910390a36115e46000838361193d565b5050565b600073ffffffffffffffffffffffffffffffffffffffff168273ffffffffffffffffffffffffffffffffffffffff161415611658576040517f08c379a000000000000000000000000000000000000000000000000000000000815260040161164f90612c57565b60405180910390fd5b6116648260008361192d565b6000600260008473ffffffffffffffffffffffffffffffffffffffff1673ffffffffffffffffffffffffffffffffffffffff168152602001908152602001600020549050818110156116eb576040517f08c379a00000000000000000000000000000000000000000000000000000000081526004016116e290612ce9565b60405180910390fd5b818103600260008573ffffffffffffffffffffffffffffffffffffffff1673ffffffffffffffffffffffffffffffffffffffff1681526020019081526020016000208190555081600460008282546117439190612d09565b92505081905550600073ffffffffffffffffffffffffffffffffffffffff168373ffffffffffffffffffffffffffffffffffffffff167fddf252ad1be2c89b69c2b068fc378daa952ba7f163c4a11628f55a4df523b3ef846040516117a891906121fd565b60405180910390a36117bc8360008461193d565b505050565b6117c9611b39565b6001600760006101000a81548160ff0219169083151502179055507f62e78cea01bee320cd4e420270b5ea74000d11b0c9f74754ebdbfc544b05a25861180d610ec5565b60405161181a9190612418565b60405180910390a1565b60006118338360000183611b83565b60001c905092915050565b600061184c82600001611bae565b9050919050565b600061185f8383611bbf565b6118b85782600001829080600181540180825580915050600190039060005260206000200160009091909190915055826000018054905083600101600084815260200190815260200160002081905550600190506118bd565b600090505b92915050565b60007f01ffc9a7000000000000000000000000000000000000000000000000000000007bffffffffffffffffffffffffffffffffffffffffffffffffffffffff1916827bffffffffffffffffffffffffffffffffffffffffffffffffffffffff1916149050919050565b611938838383611be2565b505050565b505050565b61194c8282610a7c565b6119db576119718173ffffffffffffffffffffffffffffffffffffffff166014611bf2565b61197f8360001c6020611bf2565b604051602001611990929190612e11565b6040516020818303038152906040526040517f08c379a00000000000000000000000000000000000000000000000000000000081526004016119d291906120f8565b60405180910390fd5b5050565b6119e98282610a7c565b15611abc57600080600084815260200190815260200160002060000160008373ffffffffffffffffffffffffffffffffffffffff1673ffffffffffffffffffffffffffffffffffffffff16815260200190815260200160002060006101000a81548160ff021916908315150217905550611a61610ec5565b73ffffffffffffffffffffffffffffffffffffffff168173ffffffffffffffffffffffffffffffffffffffff16837ff6391f5c32d9c69d2a47ea670b442974b53935d1edc7fd64eb21e047a839171b60405160405180910390a45b5050565b6000611ae8836000018373ffffffffffffffffffffffffffffffffffffffff1660001b611e2e565b905092915050565b611af8610953565b611b37576040517f08c379a0000000000000000000000000000000000000000000000000000000008152600401611b2e90612e97565b60405180910390fd5b565b611b41610953565b15611b81576040517f08c379a0000000000000000000000000000000000000000000000000000000008152600401611b7890612f03565b60405180910390fd5b565b6000826000018281548110611b9b57611b9a612f23565b5b9060005260206000200154905092915050565b600081600001805490509050919050565b600080836001016000848152602001908152602001600020541415905092915050565b611bed838383611f42565b505050565b606060006002836002611c059190612f52565b611c0f9190612595565b67ffffffffffffffff811115611c2857611c27612fac565b5b6040519080825280601f01601f191660200182016040528015611c5a5781602001600182028036833780820191505090505b5090507f300000000000000000000000000000000000000000000000000000000000000081600081518110611c9257611c91612f23565b5b60200101907effffffffffffffffffffffffffffffffffffffffffffffffffffffffffffff1916908160001a9053507f780000000000000000000000000000000000000000000000000000000000000081600181518110611cf657611cf5612f23565b5b60200101907effffffffffffffffffffffffffffffffffffffffffffffffffffffffffffff1916908160001a90535060006001846002611d369190612f52565b611d409190612595565b90505b6001811115611de0577f3031323334353637383961626364656600000000000000000000000000000000600f861660108110611d8257611d81612f23565b5b1a60f81b828281518110611d9957611d98612f23565b5b60200101907effffffffffffffffffffffffffffffffffffffffffffffffffffffffffffff1916908160001a905350600485901c945080611dd990612fdb565b9050611d43565b5060008414611e24576040517f08c379a0000000000000000000000000000000000000000000000000000000008152600401611e1b90613051565b60405180910390fd5b8091505092915050565b60008083600101600084815260200190815260200160002054905060008114611f36576000600182611e609190612d09565b9050600060018660000180549050611e789190612d09565b9050818114611ee7576000866000018281548110611e9957611e98612f23565b5b9060005260206000200154905080876000018481548110611ebd57611ebc612f23565b5b90600052602060002001819055508387600101600083815260200190815260200160002081905550505b85600001805480611efb57611efa613071565b5b600190038181906000526020600020016000905590558560010160008681526020019081526020016000206000905560019350505050611f3c565b60009150505b92915050565b611f4d838383611f9a565b611f55610953565b15611f95576040517f08c379a0000000000000000000000000000000000000000000000000000000008152600401611f8c90613112565b60405180910390fd5b505050565b505050565b600080fd5b60007fffffffff0000000000000000000000000000000000000000000000000000000082169050919050565b611fd981611fa4565b8114611fe457600080fd5b50565b600081359050611ff681611fd0565b92915050565b60006020828403121561201257612011611f9f565b5b600061202084828501611fe7565b91505092915050565b60008115159050919050565b61203e81612029565b82525050565b60006020820190506120596000830184612035565b92915050565b600081519050919050565b600082825260208201905092915050565b60005b8381101561209957808201518184015260208101905061207e565b838111156120a8576000848401525b50505050565b6000601f19601f8301169050919050565b60006120ca8261205f565b6120d4818561206a565b93506120e481856020860161207b565b6120ed816120ae565b840191505092915050565b6000602082019050818103600083015261211281846120bf565b905092915050565b600073ffffffffffffffffffffffffffffffffffffffff82169050919050565b60006121458261211a565b9050919050565b6121558161213a565b811461216057600080fd5b50565b6000813590506121728161214c565b92915050565b6000819050919050565b61218b81612178565b811461219657600080fd5b50565b6000813590506121a881612182565b92915050565b600080604083850312156121c5576121c4611f9f565b5b60006121d385828601612163565b92505060206121e485828601612199565b9150509250929050565b6121f781612178565b82525050565b600060208201905061221260008301846121ee565b92915050565b60008060006060848603121561223157612230611f9f565b5b600061223f86828701612163565b935050602061225086828701612163565b925050604061226186828701612199565b9150509250925092565b6000819050919050565b61227e8161226b565b811461228957600080fd5b50565b60008135905061229b81612275565b92915050565b6000602082840312156122b7576122b6611f9f565b5b60006122c58482850161228c565b91505092915050565b6122d78161226b565b82525050565b60006020820190506122f260008301846122ce565b92915050565b6000806040838503121561230f5761230e611f9f565b5b600061231d8582860161228c565b925050602061232e85828601612163565b9150509250929050565b600060ff82169050919050565b61234e81612338565b82525050565b60006020820190506123696000830184612345565b92915050565b60006020828403121561238557612384611f9f565b5b600061239384828501612199565b91505092915050565b6000602082840312156123b2576123b1611f9f565b5b60006123c084828501612163565b91505092915050565b600080604083850312156123e0576123df611f9f565b5b60006123ee8582860161228c565b92505060206123ff85828601612199565b9150509250929050565b6124128161213a565b82525050565b600060208201905061242d6000830184612409565b92915050565b6000806040838503121561244a57612449611f9f565b5b600061245885828601612163565b925050602061246985828601612163565b9150509250929050565b7f4e487b7100000000000000000000000000000000000000000000000000000000600052602260045260246000fd5b600060028204905060018216806124ba57607f821691505b602082108114156124ce576124cd612473565b5b50919050565b7f416363657373436f6e74726f6c3a2063616e206f6e6c792072656e6f756e636560008201527f20726f6c657320666f722073656c660000000000000000000000000000000000602082015250565b6000612530602f8361206a565b915061253b826124d4565b604082019050919050565b6000602082019050818103600083015261255f81612523565b9050919050565b7f4e487b7100000000000000000000000000000000000000000000000000000000600052601160045260246000fd5b60006125a082612178565b91506125ab83612178565b9250827fffffffffffffffffffffffffffffffffffffffffffffffffffffffffffffffff038211156125e0576125df612566565b5b828201905092915050565b7f45524332305072657365744d696e7465725061757365723a206d75737420686160008201527f76652070617573657220726f6c6520746f20756e706175736500000000000000602082015250565b600061264760398361206a565b9150612652826125eb565b604082019050919050565b600060208201905081810360008301526126768161263a565b9050919050565b7f45524332305072657365744d696e7465725061757365723a206d75737420686160008201527f7665206d696e74657220726f6c6520746f206d696e7400000000000000000000602082015250565b60006126d960368361206a565b91506126e48261267d565b604082019050919050565b60006020820190508181036000830152612708816126cc565b9050919050565b7f45524332305072657365744d696e7465725061757365723a206d75737420686160008201527f76652070617573657220726f6c6520746f207061757365000000000000000000602082015250565b600061276b60378361206a565b91506127768261270f565b604082019050919050565b6000602082019050818103600083015261279a8161275e565b9050919050565b7f45524332303a2064656372656173656420616c6c6f77616e63652062656c6f7760008201527f207a65726f000000000000000000000000000000000000000000000000000000602082015250565b60006127fd60258361206a565b9150612808826127a1565b604082019050919050565b6000602082019050818103600083015261282c816127f0565b9050919050565b7f45524332303a20617070726f76652066726f6d20746865207a65726f2061646460008201527f7265737300000000000000000000000000000000000000000000000000000000602082015250565b600061288f60248361206a565b915061289a82612833565b604082019050919050565b600060208201905081810360008301526128be81612882565b9050919050565b7f45524332303a20617070726f766520746f20746865207a65726f20616464726560008201527f7373000000000000000000000000000000000000000000000000000000000000602082015250565b600061292160228361206a565b915061292c826128c5565b604082019050919050565b6000602082019050818103600083015261295081612914565b9050919050565b7f45524332303a20696e73756666696369656e7420616c6c6f77616e6365000000600082015250565b600061298d601d8361206a565b915061299882612957565b602082019050919050565b600060208201905081810360008301526129bc81612980565b9050919050565b7f45524332303a207472616e736665722066726f6d20746865207a65726f20616460008201527f6472657373000000000000000000000000000000000000000000000000000000602082015250565b6000612a1f60258361206a565b9150612a2a826129c3565b604082019050919050565b60006020820190508181036000830152612a4e81612a12565b9050919050565b7f45524332303a207472616e7366657220746f20746865207a65726f206164647260008201527f6573730000000000000000000000000000000000000000000000000000000000602082015250565b6000612ab160238361206a565b9150612abc82612a55565b604082019050919050565b60006020820190508181036000830152612ae081612aa4565b9050919050565b7f45524332303a207472616e7366657220616d6f756e742065786365656473206260008201527f616c616e63650000000000000000000000000000000000000000000000000000602082015250565b6000612b4360268361206a565b9150612b4e82612ae7565b604082019050919050565b60006020820190508181036000830152612b7281612b36565b9050919050565b7f45524332303a206d696e7420746f20746865207a65726f206164647265737300600082015250565b6000612baf601f8361206a565b9150612bba82612b79565b602082019050919050565b60006020820190508181036000830152612bde81612ba2565b9050919050565b7f45524332303a206275726e2066726f6d20746865207a65726f2061646472657360008201527f7300000000000000000000000000000000000000000000000000000000000000602082015250565b6000612c4160218361206a565b9150612c4c82612be5565b604082019050919050565b60006020820190508181036000830152612c7081612c34565b9050919050565b7f45524332303a206275726e20616d6f756e7420657863656564732062616c616e60008201527f6365000000000000000000000000000000000000000000000000000000000000602082015250565b6000612cd360228361206a565b9150612cde82612c77565b604082019050919050565b60006020820190508181036000830152612d0281612cc6565b9050919050565b6000612d1482612178565b9150612d1f83612178565b925082821015612d3257612d31612566565b5b828203905092915050565b600081905092915050565b7f416363657373436f6e74726f6c3a206163636f756e7420000000000000000000600082015250565b6000612d7e601783612d3d565b9150612d8982612d48565b601782019050919050565b6000612d9f8261205f565b612da98185612d3d565b9350612db981856020860161207b565b80840191505092915050565b7f206973206d697373696e6720726f6c6520000000000000000000000000000000600082015250565b6000612dfb601183612d3d565b9150612e0682612dc5565b601182019050919050565b6000612e1c82612d71565b9150612e288285612d94565b9150612e3382612dee565b9150612e3f8284612d94565b91508190509392505050565b7f5061757361626c653a206e6f7420706175736564000000000000000000000000600082015250565b6000612e8160148361206a565b9150612e8c82612e4b565b602082019050919050565b60006020820190508181036000830152612eb081612e74565b9050919050565b7f5061757361626c653a2070617573656400000000000000000000000000000000600082015250565b6000612eed60108361206a565b9150612ef882612eb7565b602082019050919050565b60006020820190508181036000830152612f1c81612ee0565b9050919050565b7f4e487b7100000000000000000000000000000000000000000000000000000000600052603260045260246000fd5b6000612f5d82612178565b9150612f6883612178565b9250817fffffffffffffffffffffffffffffffffffffffffffffffffffffffffffffffff0483118215151615612fa157612fa0612566565b5b828202905092915050565b7f4e487b7100000000000000000000000000000000000000000000000000000000600052604160045260246000fd5b6000612fe682612178565b91506000821415612ffa57612ff9612566565b5b600182039050919050565b7f537472696e67733a20686578206c656e67746820696e73756666696369656e74600082015250565b600061303b60208361206a565b915061304682613005565b602082019050919050565b6000602082019050818103600083015261306a8161302e565b9050919050565b7f4e487b7100000000000000000000000000000000000000000000000000000000600052603160045260246000fd5b7f45524332305061757361626c653a20746f6b656e207472616e7366657220776860008201527f696c652070617573656400000000000000000000000000000000000000000000602082015250565b60006130fc602a8361206a565b9150613107826130a0565b604082019050919050565b6000602082019050818103600083015261312b816130ef565b905091905056fea26469706673582212209953693ec9001b0d75b5a43a33cbdb70e82a9e46d1cd12b10418e0154cc7973a64736f6c63430008090033",
  "linkReferences": {},
  "deployedLinkReferences": {}
}